:020000040800F2
:100000000028002001010008B7120008A91100080B
:10001000B51200081F0300083B1E00080000000086
:10002000000000000000000000000000251C000887
:100030003D03000800000000B9120008291C000858
:100040001B0100081B0100081B0100081B01000820
:100050001B0100081B0100081B0100081B01000810
:100060001B0100081B0100081B0100081B01000800
:100070001B0100081B0100081B0100081B010008F0
:100080001B0100081B0100081B0100081B010008E0
:100090001B0100081B0100081B0100081B010008D0
:1000A0001B0100081B0100081B0100081B010008C0
:1000B0001B0100081B0100081B0100081B010008B0
:1000C0001B0100081B0100081B0100081B010008A0
:1000D0001B0100081B0100081B0100081B01000890
:1000E0001B0100081B0100081B010008DFF80CD0F1
:1000F00000F0F4F800480047733B00080028002097
:100100000648804706480047FEE7FEE7FEE7FEE7B1
:10011000FEE7FEE7FEE7FEE7FEE7FEE7AB1C0008B2
:10012000ED000008202A04DB203A21FA02F0002129
:10013000704721FA02F3D040C2F1200291400843F7
:1001400019467047D2B201E000F8012B491EFBD2DC
:1001500070470022F6E710B513460A4604461946D2
:10016000FFF7F0FF204610BD034611F8012B00F801
:10017000012B002AF9D11846704770B521F00043D1
:1001800003430CD0C1F30A550024D5EB040564EBFE
:100190000403D617AD1AB34102DB0020014670BD3F
:1001A000201841EB025170BD0EB540F2334102916F
:1001B0000021CDE900110A460B4600F040F803B0DB
:1001C00000BDC1F30A5210B5C1F3130140F2FF3371
:1001D00041F480119A4201DA002010BD40F233430D
:1001E0009A42A2F2334203DC5242FFF79BFF10BD5A
:1001F000904010BD30B50B4601460020202201245E
:1002000009E021FA02F59D4205D303FA02F5491BE4
:1002100004FA02F52844151EA2F10102F1DC30BDFA
:1002200010B5141E73F1000408DA401C41F10001FE
:1002300092185B411A4301D120F0010010BD2DE955
:10024000F04D92469B4611B1B1FA81F202E0B0FA4C
:1002500080F22032904600F053F804460F4640EA00
:100260000A0041EA0B0153465A46084313D011468F
:1002700053EA010019D0C8F140025046FFF752FF7F
:1002800005460E4650465946424600F039F80843A6
:1002900005D0012004E020463946BDE8F08D00205D
:1002A000054346EAE0762C4337430A986305E40A9F
:1002B000A0EB08000022FD0A44EA47540A3002D5A8
:1002C00000200146E9E7010510196941DDE908450B
:1002D00000196941BDE8F04DA2E70000064C074D4A
:1002E00006E0E06840F0010394E807009847103406
:1002F000AC42F6D3FFF7FEFE6044000880440008DD
:10030000202A04DB203A00FA02F1002070479140D5
:10031000C2F1200320FA03F3194390407047FEE72F
:1003200010B501221146044800F030F9BDE8104034
:10033000012000F029B80000000C0140704772B69F
:10034000FEE70022AFF3008030B50E4B05460120DA
:100350005C7A012C15D8587A00241C54587A03EB87
:10036000800045605D7A03F108002A54587A421CE7
:100370005A72303008703A2048702F208870CC7044
:10038000002030BD1803002070B5044600F004F9C9
:100390000546601C02D004480078044400F0FCF8D4
:1003A000401BA042FAD370BD240000202DE9F84F75
:1003B000DFF8B8910024A9F1040B23460F2709F1B7
:1003C000040AABF1040EC9E00125A5402A40AA4267
:1003D0007DD1674ED1F804C0ACEB0608B44532D0ED
:1003E00014DCBCF1030F3AD009DCBCF1000F2AD0B9
:1003F000BCF1010F1CD0BCF1020F31D11DE0BCF1EA
:10040000110F17D0BCF1120F2AD119E0B8F5881FCF
:1004100019D006DCB8F5803F15D0B8F5801F1FD184
:1004200011E0B8F5001F0ED0B8F5041F18D10AE08E
:10043000CB6815E0CB681B1D12E0CB6808330FE0DA
:10044000CB680C330CE08B682BB1012B4FF0080309
:1004500003D0456104E0042302E0056100E00023CD
:10046000FF2A01D8064601E000F104064FEA8405A0
:1004700001D9A5F12005D6F8008007FA05FC28EA85
:100480000C0803FA05F548EA0508C6F800804D682F
:10049000ED0062D5374DAE6946F00106AE61AD693B
:1004A00024F0030605F001050095334D06EB050C1D
:1004B000DCF80850A607360F07FA06F825EA080503
:1004C000DFF8B880404503D14FF0000817E044E062
:1004D000DFF8AC80404502D14FF001080FE0DFF8B3
:1004E000A480404502D14FF0020808E0DFF8988070
:1004F000404502D14FF0030801E04FF0040808FA2C
:1005000006F848EA0508CCF808804D68D9F800607C
:10051000ED024D4601D5164300E096432E604D682E
:10052000DAF80060AD02554601D5164300E0964367
:100530002E604D68DBF80060AD035D4601D51643C3
:1005400000E096432E604D68DEF80060ED037546CE
:1005500001D5164300E096432E60641C0D682A46C0
:10056000E5407FF431AFBDE8F88F0000080401409A
:10057000000011100010024000000140000801407E
:10058000000C014000100140001401400AB101615B
:1005900070470904FBE700000148806870470000CD
:1005A000240000200248816802781144816070476D
:1005B00024000020074810B5016841F010010160D7
:1005C000032000F067F80F2000F006F800F024F890
:1005D000002010BD0020024070B50D4D04464FF4C0
:1005E0007A712878B1FBF0F00A490968B1FBF0F0A4
:1005F00000F00BFD48B9102C07D200222146501EF6
:1006000000F028F800206C6070BD012070BD000073
:1006100024000020300000200C4808B5816941F01A
:1006200001018161816901F001010091C16941F01D
:100630008051C161C06900F0805000900448416859
:1006400021F0E06141F00071416008BD00100240FE
:1006500000000140F0B40E4B1B680C46C3F30223AC
:10066000C3F10705042D00D90425191D072901D25E
:10067000002300E0DB1E012606FA05F1491E214099
:1006800099409E40761E16403143F0BC01F0E6BB17
:100690000CED00E0064900F0070208684FF6FF0382
:1006A000184040EA0220034A1043086070470000E7
:1006B0000CED00E00000FA052DE9F0470F460500BB
:1006C00061D0434E306800F00700B84209D230686C
:1006D00020F0070038433060306800F00700B8426F
:1006E00051D128683B4C810712D5400703D560687B
:1006F00040F4E06060602878000703D5606840F44B
:10070000605060606068A96820F0F0000843606095
:100710002878C00728D06868012810D021680228EE
:1007200010D0890700292EDA616821F00301014306
:100730006160FFF731FF804641F288390DE02168A2
:100740008903EFE78901EDE7FFF726FFA0EB08013A
:10075000494502D90320BDE8F0876068696800F068
:100760000C00B0EB810FEFD1306800F00700B84209
:100770000BD9306820F0070038433060306800F053
:100780000700B84201D00120E5E72878400705D5E9
:100790006068E96820F4E06008436060287800073A
:1007A00006D56068296920F4605040EAC1006060A5
:1007B00000F038F86168084AC1F30311515CC84081
:1007C0000649086006480068FFF706FF0020C2E7F8
:1007D0000020024000100240CC3E00083000002003
:1007E000280000200448054900684968044AC1F30C
:1007F0000221515CC84070473000002000100240C8
:10080000DC3E00080448054900684968044AC1F311
:10081000C221515CC84070473000002000100240E7
:10082000DC3E00080E4A51680E4801F00C03042B10
:1008300011D0082B0FD10C48C1F38343C903C05C0E
:100840000AD55168084AC1F34041921E515C054ADD
:100850005043B0FBF1F07047044948437047000033
:100860000010024000127A00BC3E000800093D0062
:100870002DE9F84F040070D02078C04DC00749D052
:100880006868C0F38100012807D06868C0F3810060
:10089000022809D16868C00306D52868800339D5C5
:1008A00060680028E7D035E06068B0F5803F0BD085
:1008B00010B1B0F5A02F11D0286820F48030286046
:1008C000286820F4802002E0286840F48030286006
:1008D000606890B1FFF760FE06460AE0286840F4C1
:1008E00080202860F0E700BFFFF756FE801B6428D9
:1008F00073D828688003F7D50CE0FFF74DFE064655
:1009000005E000BFFFF748FE801B6428F0D8286888
:100910008003F7D420789A4E80074FF001094FF0FA
:10092000000839D5686810F00C0F07D06868C0F36C
:100930008100022809D16868C00306D428688007AE
:1009400014D52069012808D110E02069B0B1C6F89B
:100950000090FFF721FE074605E00AE1FFF71CFEC5
:10096000C01B0228C4D828688007F7D528686169A9
:1009700020F0F80040EAC10028600DE0C6F80080D1
:10098000FFF70AFE074604E0FFF706FEC01B022839
:1009900023D828688007F7D4207800072CD5794819
:1009A000A169D9B1C0F80090FFF7F6FD074604E051
:1009B000FFF7F2FDC01B02280FD8686A8007F7D541
:1009C00071484FF4FA510068B0FBF1F0009000BF9D
:1009D0000098411E0091FAD20EE080E0C0F800803D
:1009E000FFF7DAFD074604E0FFF7D6FDC01B02283B
:1009F00075D8686A8007F7D42078400760D5E86921
:100A00000027C00008D4E86940F08050E861E86938
:100A1000012700F0805000905C480168C90513D49C
:100A20000168834641F480710160FFF7B5FD82469D
:100A300006E000BFFFF7B0FDA0EB0A0064284ED827
:100A4000DBF80000C005F5D5E06801280AD008B140
:100A5000052813D0286A20F001002862286A20F0B7
:100A6000040002E0286A40F001002862E06841F2D8
:100A7000883B98B1FFF790FD82460BE0286A40F072
:100A800004002862EEE700BFFFF786FDA0EB0A0135
:100A900059455AD8286A8007F6D50CE0FFF77CFD47
:100AA000824605E0FFF778FDA0EB0A0159454CD8D6
:100AB000286A8007F6D41FB1E86920F08050E86109
:100AC000E06988B36968C1F38101022944D0022832
:100AD000C6F8608004D0FFF75FFD044638E034E0DC
:100AE000FFF75AFD074604E0FFF756FDC01B02283A
:100AF0002BD828688001F7D4206AB0F5803F05D153
:100B00006868A16820F4003008436860D4E90801EF
:100B10000843696821F4741108436860C6F860905E
:100B2000FFF73AFD044606E025E000BFFFF734FD7D
:100B3000001B022809D828688001F7D51BE000BFF8
:100B4000FFF72AFD001B022802D90320BDE8F88F19
:100B500028688001F4D40EE00128F7D06868226A82
:100B600000F48031914204D1616A00F4701088422F
:100B700001D00120EAE70020E8E700000010024071
:100B800000004242800442423000002000700040D9
:100B900070B5040009D0606A002540B12561656127
:100BA000A56294F8510040B10CE0012070BD60686E
:100BB000B0F5827FF4D0E561F2E784F8505020462A
:100BC00000F040F8022084F851002068016821F00C
:100BD00040010160A088218900F4827001F4044181
:100BE0000843A18901F400610843217C01F002015E
:100BF0000843217D01F001010843218B01F40071BC
:100C00000843217F01F03801084394F8201001F0D7
:100C100080010843218D01F40051084321680860D8
:100C2000A069042101EA1040216848602068C16978
:100C300021F40061C1616565012084F85100002044
:100C400070BD000030B585B000240094019402947A
:100C5000039400681449884223D11448816941F4FF
:100C600080518161816901F480510491816941F071
:100C70000401816180690E4D00F004000490A02001
:100C80000090022001900320039069462846FFF758
:100C90008DFB4020CDE90004694628460294FFF709
:100CA00085FB05B030BD000000300140001002405F
:100CB000000801402DE9F84F984616468A4604463A
:100CC000FFF76AFC814694F8510001281ED1BAF161
:100CD000000F73D0002E71D094F85000012815D069
:100CE000012784F85070032084F8510000256565C1
:100CF000C4F830A0A686E686A563A587E587656467
:100D00002564A068B0F5004F03D00CE00220BDE8D8
:100D1000F88F2068016821F04001016020680168B7
:100D200041F48041016020680168490603D40168EC
:100D300041F040010160E068B0F5006F606803D0E9
:100D400048B3012E27D047E008B1012E1FD1206BF8
:100D500021680088C86006E020688168890709D595
:100D6000216B0988C160206B801C2063E08E401ECF
:100D7000E0860CE0FFF710FCA0EB0901414503D32E
:100D8000B8F1FF3F03D035E0B8F1000F32D0E08E6C
:100D90000028E1D123E0206B21680078087306E089
:100DA0002068816889070AD5216B09780173206B57
:100DB000401C2063E08E401EE0860DE02BE0FFF734
:100DC000EBFBA0EB0901414503D3B8F1FF3F03D092
:100DD00010E0B8F1000F0DD0E08E0028E0D14A46B7
:100DE0004146204600F074FE08B120206065A068EE
:100DF00030B109E084F8517084F85050032086E740
:100E00002068C1688068009084F8517004F8505FD1
:100E100060680028F3D0012079E72DE9FF4F81B009
:100E20001D46934604464FF001090E9EFFF7B4FBA2
:100E3000074694F851006168012806D0B1F5827F19
:100E40003CD1A168C9BB042838D10298002871D0D0
:100E5000BBF1000FFBD0002DF9D094F85000012811
:100E60002CD04FF0010A84F850A094F851000428C7
:100E700002D0052084F851004FF00008C4F85480D7
:100E8000C4F838B0E587A58702992163E586A58671
:100E9000C4F84080C4F8448020680168490603D43F
:100EA000016841F040010160E068B0F5006F6068E2
:100EB00008D0F0B3012D49D081E0FFE7022005B052
:100EC000BDE8F08F08B1012D39D1206B2168008871
:100ED000C860206B801C2063E08E401EE0862EE000
:100EE0002068816889070FD5E18E69B1B9F1010FDA
:100EF0000AD1216B0988C160206B801C2063E08EC1
:100F0000401EE0864FF0000920688168C9070CD0B8
:100F1000E18F51B1C068A16B0880A06B801CA063F9
:100F2000E08F401EE0874FF00109FFF735FBC01B43
:100F300001E00BE067E0B04201D3701C50D1E08EBD
:100F40000028CDD1E08F0028CAD13EE0206B216877
:100F500000780873206B401C2063E08E401EE08602
:100F60002DE02068816889070FD5E18E69B1B9F15C
:100F7000010F0AD1216B09780173206B401C20639B
:100F8000E08E401EE0864FF0000920688168C907A6
:100F90000CD0E18F51B1C068A16B0870A06B401CF0
:100FA000A063E08F401EE0874FF00109FFF7F4FADD
:100FB000C01BB04202D3701C01D011E086B1E08E9C
:100FC0000028CED1E08F0028CBD13A4631462046CA
:100FD00000F07EFD50B12020606584F8508012E062
:100FE00084F851A084F85080032068E7A06818B9FD
:100FF0002068C1688068009084F851A084F850800F
:10100000606D0028F1D0012059E710B5401EB0F105
:10101000807F01D3012010BD4FF0E02460610F21DB
:10102000601700F01BFF0020A06107202061002056
:1010300010BD70B5040004D094F84100002510B133
:1010400006E0012070BD84F84050204600F024F8EE
:10105000242084F841002068C16821F40051C16057
:10106000204600F04BFE2068016921F490410161A7
:101070002068416921F02A0141612068C16841F47A
:101080000051C1606564202084F8410084F842006A
:101090006563002070BD000030B585B00024009469
:1010A00001940294039400681449884224D114489E
:1010B000816941F480418161816901F48041049139
:1010C000816941F00401816180690E4D00F00400E6
:1010D00004904FF4007000900220019003200390D0
:1010E00069462846FFF762F92815CDE900046946EC
:1010F00028460294FFF75AF905B030BD0038014088
:1011000000100240000801402DE9F843044690F821
:101110004100984616460D46202802D00220BDE820
:10112000F88385B17EB100206064212084F84100FD
:10113000FFF732FAA6848146E684A0682027B0F53E
:10114000805F02D003E00120E9E7206910B12E465C
:1011500000250EE000260CE08021204600F02AFE4B
:10116000A8B9C6B116F8010B21684860E08C401E92
:10117000E084E08C4B464FF00002CDF80080002860
:10118000EAD14FF04001204600F014FE40B184F84F
:1011900041700320C3E735F8020BC0F30800E3E712
:1011A00084F841700020BAE7FEE7000010B504495A
:1011B0000448FFF7C6F80249491E087010BD000038
:1011C0001D0000200800002030B585B0002417481D
:1011D0000094019402940394816941F0200181619B
:1011E000816901F020010491816941F0040181616C
:1011F000816901F004010491816941F00801816174
:1012000080690B4D00F0080004900022012128465F
:10121000FFF7BCF90220012103900091CDE90114F0
:1012200069462846FFF7C2F805B030BD00100240FD
:10123000000C0140104810B50E4901604FF4827156
:10124000416000218160C1604FF400720161C0E91A
:1012500005121022C0E90721416281620A21C162A0
:10126000FFF796FC002803D0BDE81040FFF767B8F1
:1012700010BD000000300140600000200C4810B597
:101280000A4901604FF4E1314160002181600C2284
:10129000C160C0E904128161C161FFF7CAFE002884
:1012A00003D0BDE81040FFF74AB810BD0038014038
:1012B000B8000020FEE7FEE77047000006484188BE
:1012C00011B14188491E41808188002902D081885E
:1012D000491E818070470000000000207CB541F667
:1012E000FF74FFF71DF80025FF2000F02FFC6D1C98
:1012F0000A2DF9DB00F0DEFB40208DF80000002015
:101300008DF801008DF802008DF803008DF80400BF
:1013100095208DF805000621684600F009FC00F0D4
:10132000F1FB012806D0641E00F0ECFB012801D07F
:10133000002CF8D1FEF7F4FFFF2000F007FC024973
:10134000012048707CBD00003C00002010B5064C18
:101350004FF4FA70A4F8000000F0D4FBFF2802D08C
:1013600021880029F8D110BD0400002070B50F4C71
:101370000546C8200E46208000F0C4FBFF2803D09D
:10138000FE2805D0002070BD20880028F4D1F9E7A0
:101390002C466D1C00F0B6FB2070761EF8D200F0D3
:1013A000B1FB00F0AFFB012070BD00000200002087
:1013B00070B50C460546FFF7C9FFFF2801D0FF2096
:1013C00070BD284600F0C2FB200E00F0BFFBC4F346
:1013D000074000F0BBFBC4F3072000F0B7FBE0B20E
:1013E00000F0B4FB402D07D0482D07D0012000F0BD
:1013F000ADFB4C2D06D007E0952000E0872000F0E3
:10140000A5FB01E000F07EFB5FF00A0400F07AFB30
:101410000106D5D5641E14F0FF04F7D170BD00009D
:1014200070B500F08DFE012253A1544801F03EFD3D
:10143000534C207008B153A000E058A000F0FEFC0F
:101440004F4A5CA00C32111D01F09BFBE16801F5D5
:10145000805148698978801E4843FEF7A5FE4FF009
:10146000FF352A46FEF789FEFEF7ABFE01466061B6
:1014700051A000F0E3FCE068216900F5805080781D
:101480004843FEF791FE2A46FEF777FEFEF799FEE7
:101490000146A0614DA000F0D1FC0A2252A155489E
:1014A00001F036FD207054A15748FEF75DFE564806
:1014B00000F0D0FD324B0246083353494D4801F04D
:1014C000A3FF20704B4801F047FB00F039FE0322D8
:1014D00045A1484801F01CFD4B4D20702C3D45486E
:1014E000E96801F0AFFB207048A14748FEF73CFED9
:1014F000454800F0AFFD224B0246083342493D48C3
:1015000001F082FF20703B4801F026FB00F018FE3E
:10151000012235A1374801F0FBFC2070184B3A49F5
:101520001B1D3448EA6801F0EBFD37493BA000F091
:1015300085FC304801F010FB00F002FE38A001F0FD
:10154000F7FE207010B939A000F078FC3DA001F042
:10155000EFFE207010B93EA000F070FC012206A141
:10156000002001F0A3FC2070002804D1BDE87040E9
:101570003DA000F063BC70BD2F00000024030020DC
:10158000400000205344E58DA1E68C82E8BDBDE516
:10159000A4B1E8B4A52121210D0A00005344E58D32
:1015A000A1E68C82E8BDBDE68890E58A9F212121D5
:1015B0000D0A0000000000005344E58DA1E5AEB91E
:1015C000E9878F3A200925750D0A00005344E58DFF
:1015D000A1E589A9E4BD99E7A9BAE997B43A200938
:1015E00025750D0A0000000066696C65322E74785E
:1015F0007400000054130020E59388E596BDE59340
:1016000088E596BD0D0A000080230020E69BB4E625
:1016100096B0E69687E4BBB60D0A0000257300007D
:101620002F66696C65312E747874000066696C658C
:10163000312E747874E588A0E999A4E68890E58A4B
:101640009F0D0A002F66696C65322E747874000055
:1016500066696C65322E747874E588A0E999A4E611
:101660008890E58A9F0D0A005344E58DA1E5B7B245
:10167000E7A7BBE999A40D0A0000000070B50E466B
:1016800005460024FFF762FEFF2820D1304600F017
:101690005DFAFD2E17D04FF40071284600F048FA8D
:1016A00000F030FA00F02EFA00F02CFA054600F0B7
:1016B0001F00052803D0641CE4B2402CF4D900F0CC
:1016C00021FA0028FBD005F01F00052801D00020DA
:1016D00070BD012070BD00002DE9F84310B101205C
:1016E000BDE8F883DFF8248198F80000800702D570
:1016F00098F80000F4E7FFF7F1FD00F0DBF90024B3
:1017000021464020FFF754FE01286ED1404E4FF491
:101710007A7030804FF4D5714820FFF749FE0128D8
:101720000DD000217720FFF743FE01283FD800218C
:101730006920FFF73DFE012839D802243EE000254C
:101740004FEA0D0700F0DEF978556D1CEDB2042D5F
:10175000F8D39DF80200012847D19DF80300AA287C
:1017600043D1450700217720FFF722FE012804D846
:1017700029466920FFF71CFE10B130880028F1D1FE
:10178000308890B300217A20FFF712FE68BB002456
:1017900000F0B8F93855641CE4B2042CF8D39DF875
:1017A0000000400601D50C241FE004241DE00124A4
:1017B00001E0022C02D00021412007E00021772027
:1017C000FFF7F6FD012804D800216920FFF7F0FD9E
:1017D00010B130880028ECD1308828B14FF4007166
:1017E0005020FFF7E5FD00B10024454688F802408F
:1017F000FEF796FD00F086F924B1287820F001006C
:10180000287001E000206870287869E73C0000201B
:10181000020000207FB515460E4610B1042004B02A
:1018200070BD01244A48052E04D00078C00713D0AB
:101830000320F4E7297829B1012906D0022907D02D
:10184000042482E00021417004E0FFF747FD01E03D
:1018500040785070002478E000F02CF90B2E51D025
:1018600005DCEEB3012E07D0022E69D141E00C2E2B
:101870004BD00D2E64D154E000214920FFF798FD94
:1018800078BB10216846FFF771FD50B39DF800103A
:101890000120B0EB911F09D19DF808209DF8091097
:1018A00000EB022008440004800920E09DF80500B8
:1018B0009DF80A1000F00F0000EBD1109DF8091000
:1018C0009DF8072001F0030100EB41019DF808009D
:1018D000800900EB82009DF8062002F0030201E07F
:1018E0000BE02EE000EB8220401CC91F88402860DE
:1018F00015E04FF40070288011E0FFF727FDFF2866
:101900000DD01EE00021492001E000214A20FFF710
:101910004FFDB0B910212846FFF728FD88B10024FB
:101920000FE000217A20FFF743FD48B95FF0000483
:1019300000F0E8F8641CE4B205F8010B042CF7D3BE
:101940000424FEF7EDFC00F0DDF8204667E7000018
:101950003C0000202DE9F0411C4615460E4638B9E2
:1019600034B121480178C90704D00320BDE8F081D3
:101970000420FBE78078400700D4550200F09AF875
:101980004FF40077012C294604D05220FFF710FDB8
:1019900070B11AE05120FFF70BFDE0B9394630462F
:1019A000FFF7E4FCB8B1FEF7BBFC00F0ABF818E0C1
:1019B00039463046FFF7DAFC18B1641E06F50076AA
:1019C000F6D100214C20FFF7F3FCFEF7A9FC00F054
:1019D00099F824B905E0FEF7A3FC00F093F8012084
:1019E000C4E70020C2E700003C00002008B101204D
:1019F00070470148007870473C0000202DE9F04115
:101A00001C4616460F4638B934B1294D2878C00710
:101A100004D00320BDE8F0810420FBE728784007CC
:101A200001D50220F6E7A878400700D4560200F05E
:101A300041F8012C10D0A878800707D50021772025
:101A4000FFF7B6FC21465720FFF7B2FC314659207C
:101A5000FFF7AEFC78B11CE031465820FFF7A8FC38
:101A6000F0B9FE213846FFF709FEC8B1FEF758FC71
:101A700000F048F819E0FC213846FFF7FFFD18B1E7
:101A8000641E07F50077F6D1FD210020FFF7F6FD73
:101A900030B1FEF745FC00F035F834B10120B9E76C
:101AA000FEF73EFC00F02EF8F8E70020B2E7000059
:101AB0003C00002010B5002201210448FEF766FD1D
:101AC000BDE810400120FEF75FBC0000000C0140A3
:101AD000F8B515460E460B46009204460122022137
:101AE00000F044F840B9334600228021204600959A
:101AF00000F03CF8002804D0606D40F020006065E4
:101B00000320F8BD0EB5FF208DF8040007480068DB
:101B100081688907FCD564200090012302AA01A9ED
:101B20000248FFF77AF99DF808000EBD600000201A
:101B3000054A126893689B07FCD50A460146642350
:101B40000148FFF7B7B800006000002001B5064863
:101B5000006881688907FCD5642301226946024830
:101B6000FFF7A8F808BD0000600000202DE9F84349
:101B70001E46914688460446089DFEF70DFD401B13
:101B8000351AFEF709FD074625480068C0F3CB303B
:101B9000684338E0701C37D0FEF7FEFCC01BA8423B
:101BA00003D215B1009860B32CE02068416821F0A1
:101BB000E00141606068B0F5827F0BD1A068B0F5AC
:101BC000004F02D0B0F5806F04D12068016821F089
:101BD00040010160A06AB0F5005F09D1206801688A
:101BE00021F4005101602068016841F40051016056
:101BF000012084F85100002084F850000320BDE843
:101C0000F8830025401E00902068816838EA0100B2
:101C100004D000214945BDD10020F0E70121F9E7BA
:101C20003000002070470000074810B50178491CBB
:101C3000017001780A2903D300210170FFF73EFBF0
:101C4000BDE81040FEF7AEBC0000002030B58FB0FC
:101C500028216846FEF77DFA14210AA8FEF779FAD2
:101C600001210804CDE9001000240294022504910A
:101C7000CDE907504FF4E01009906846FEF7F8FDF3
:101C800008B172B6FEE70F20CDE90A054FF4806077
:101C9000CDE90C4002210AA80E94FEF70DFD0028A4
:101CA00001D072B6FEE70FB030BD704701680C314D
:101CB00051E8002F22F4907241E80023002BF5D167
:101CC0000168143151E8002F22F0010241E800239D
:101CD000002BF5D1016B012909D101680C3151E8C4
:101CE000002F22F0100241E80023002BF5D1202123
:101CF00080F84210002101637047000070B504466F
:101D000000680169E26821F44051114301612169D1
:101D1000A0680843616908432168CA6841F20C63FE
:101D20009A430243CA6020684169A26921F4407164
:101D3000114341611E492068884202D1FEF762FDCD
:101D400001E0FEF74FFD00EBC00101EB00126068FF
:101D500064218000B2FBF0F3B3FBF1F36FF01806DF
:101D60007343B2FBF0F5B2FBF0F605EB83053223CB
:101D700003EB0515B5FBF1F5B6FBF1F605F0F00543
:101D800005EB0615B2FBF0F6B2FBF0F0B0FBF1F09C
:101D90006FF01802504306EB800003EB0010B0FB1D
:101DA000F1F0216800F00F002844886070BD000049
:101DB000003801402DE9F843984617460D46044681
:101DC000089E24E0701C22D0FEF7E6FBA0EB080082
:101DD000B0421AD8CEB12068C168490717D5802D06
:101DE00015D0402D13D00168C94309070FD40168ED
:101DF0000025406800902046FFF758FF08206064E7
:101E000084F840500120BDE8F8830320FBE72068F8
:101E1000006835EA000004D00020B842D2D000208B
:101E2000F1E70120F9E7FFF757BCFFF7F3BCFFF735
:101E300091BDFFF7DBBDFFF7E1BDFEE70FB4054B3A
:101E400010B503A9044A029800F028F810BC5DF808
:101E500014FB0000053900085C0000200907090E8A
:101E6000002804DB00F1E02080F80014704700F047
:101E70000F0000F1E02080F8141D704702E008C850
:101E8000121F08C1002AFAD170477047002001E0F4
:101E900001C1121F002AFBD1704700002DE9FF4F3E
:101EA0008BB09A460F460546002606E025280BD043
:101EB00052460D9990476D1C761C28780028F5D164
:101EC0000FB03046BDE8F08F0024A04601226049E3
:101ED00000E0044315F8013F203B02FA03F00842FA
:101EE000F7D128782E2817D115F8010F44F00404F3
:101EF0002A280ED06FF02F022878A0F1300109298E
:101F00000AD808EB880102EB410100EB01086D1CC7
:101F1000F2E757F8048B6D1C287869283ED006DC60
:101F20000028CDD063280BD0642804D136E0732874
:101F300010D075284BD052460D999047761C85E0FD
:101F400017F8040B8DF8000000208DF80100E94619
:101F5000012003E057F8049B4FF0FF3061074FF07A
:101F6000000401D40AE0641C44450DDA8442FADB23
:101F700019F804100029F6D106E0641C8442FCDB49
:101F800019F804100029F8D1264404E019F8010BCF
:101F900052460D999047641EF8D257E001CF4FF09A
:101FA0000A0B002802DA40422D2102E0210504D567
:101FB0002B218DF82410012103E0E10705D0202119
:101FC000F7E70DF1200908910CE00021F9E701CFB6
:101FD0004FF00A0BF9E75946FEF70CF901F1300210
:101FE00009F8012D0028F6D1ADEB090000F1200B16
:101FF000600701D44FF00108D84502DDA8EB0B00C3
:1020000000E000208046002406E009A85246005D5A
:102010000D999047641C761C08988442F5DB04E017
:10202000302052460D999047761CB8F10001A8F176
:102030000108F5DC05E019F8010B52460D999047AF
:10204000761CBBF10001ABF1010BF4DC6D1C34E735
:10205000092801000146002000E0401C11F8012B76
:10206000002AFAD17047000010B5044600F58050F0
:1020700000220271521EC262204601F099FD08B191
:10208000032010BDB4F8FE01A0F52A41553901D056
:10209000022010BD94F83600B4F8371040EA012150
:1020A0000848B0EB012F08D094F85210B4F8532030
:1020B00041EA0221B0EB012F01D1002010BD012027
:1020C00010BD00000046415400E0401C02780AB1F7
:1020D0008A42FAD1D0B27047F0B50022174B1446AD
:1020E00000F5805002EB420653F826506DB10768A8
:1020F000BD420BD103EB860587686E68BE4205D1F1
:102100002D89C688B54204D000E00124521C022A61
:10211000E8D3022A01D079B904E05CB9022909D0D8
:102120001220F0BD02EB420003EB80004089B0F5C5
:10213000807F01D00020F0BD1020F0BD0001002004
:102140000020034902460A54401C8028FBDB7047EC
:102150008023002030B50021064A0C4601EB4103E4
:1021600052F82350854201D142F82340491C0229EC
:10217000F4D330BD0001002000F58050426A0068B1
:1021800000F58050438980784343B1FBF3F0121D82
:1021900002CA19B1884203D3401AF8E700207047F9
:1021A00011680844704700F58050891E4269921EEC
:1021B0008A4201D800207047826A807801FB0020A3
:1021C00070472DE9F04180460F0000F5805407D09C
:1021D000404601F0E3FB022809D20120BDE8F0816E
:1021E000E66816B16069B04207D8012605E0411CD7
:1021F000F4D061698142F1D83E46354660696D1C74
:10220000A84202D80225022E0AD32946404601F0F0
:10221000C5FB38B1411CE1D00128DFD0B542EDD17A
:102220000020DBE76FF070422946404601F0DCFCFD
:1022300030B957B12A463946404601F0D5FC20B1A5
:1022400001280DD001252846C8E7E5602069411C1A
:10225000F9D0401E2061607940F001006071F2E722
:102260004FF0FF35EFE700002DE9F84F88460D6885
:1022700000E06D1C29782F29FBD05C29F9D000F5EE
:10228000805A0024DAF820702646A85D761C2028A3
:1022900017D32F2815D05C2813D0FF2C31D2012161
:1022A00001F096F95FEA00092BD0B9F1800F04D252
:1022B000014668A0FFF708FF18BB27F81490641CBC
:1022C000E3E7AA19C8F80020202801D2042516E067
:1022D000002514E007EB440030F8020C20280DD054
:1022E0002E280BD06CB1002027F814000B222021DF
:1022F000DAF8180001F055FC002606E0641E002CF8
:10230000E8D10620BDE8F88F761C37F816002028A3
:10231000FAD02E28F8D01EB145F0030500E0641E67
:102320002CB107EB440030F8020C2E28F7D1002026
:1023300081464FF0080B009037F8160006F10106B1
:102340005FEA000824D0B8F1200F04D0B8F12E0FB6
:1023500004D1A64202D045F00305EDE700985845A8
:1023600001D2A6421AD1BBF10B0F0FD0A64201D069
:1023700045F003050CD84FF0080000904FEA896043
:1023800026464FF00B0B4FEA1069D5E745F00305E1
:10239000DAF818000178E52938D039E04046B8F17C
:1023A000800F10D3002101F013F95FEA000805D077
:1023B0002B4901EB080010F8800C804645F002051F
:1023C000B8F1000F04D0014626A0FFF77DFE20B132
:1023D0004FF05F0845F003050FE0A8F14100192810
:1023E00002D849F0020908E0A8F16100192804D8D0
:1023F000413049F001091FFA80F8DAF818200099F5
:1024000002F801800098401C009095E705210170BA
:10241000BBF1080F03D14FEA89604FEA1069C9F395
:102420008100032803D06FEA0901890701D145F033
:102430000205A90709D409F00301012901D145F0DA
:102440001005012801D145F00805DAF81800C57219
:10245000002057E7222A3A3C3E3F7C7F00000000E4
:10246000E43E00082B2C3B3D5B5D0000401E022833
:1024700015D20C4B00EB400203EB82014889B0F50A
:10248000807F05D008B1401E80B2488110B104E0C1
:102490000020FAE7002043F82200002070470220C5
:1024A00070470000000100202DE9F14F82B00021AB
:1024B000029800F0BAFA00287AD1029DFF2005F5B3
:1024C00080554FF6FF7A00908146A5F824A029692F
:1024D000286801F06DFB06000DD16C69207848B1C9
:1024E000E17AE52801F03F016DD00A0704D50F29F4
:1024F00069D107E0042671E00F2903D0B9F1000F7C
:102500004AD04FE0296A89B3420606D5627B009221
:1025100020F04000EA888146AA84484535D1627B94
:102520000098824231D101912078A04620F04000ED
:10253000401E00EB80010027DFF8A8B001EBC006C9
:10254000012400BF1BF8071001EB0800008874B1DC
:1025500001F05AF80446FF2E17D2019830F8160001
:10256000761C01F051F8A0420FD102E02FE0504557
:102570000BD17F1C0D2FE5D398F80000400608D53D
:102580003CB1019830F8160018B1FF2000F0FF09A7
:102590001DE0A9F10100F9E7204601F0EFFB0099E9
:1025A00088421BD0A869C17AC9070CD10A2102E070
:1025B00015E0491E06D314F8012B10F8013BD21A7E
:1025C000F7D000E052B14FF0FF09A5F824A0002198
:1025D000029800F009F806003FF479AF3046BDE8F4
:1025E000FE8F0000643F00082DE9F04100F58054A3
:1025F0000F46E688761C3004000C38D0216991B370
:10260000206800F5805253895B09B6FBF3F503FBA4
:102610001563002B67D1491C2161E16821B35389FF
:1026200092785B09B6FBF3F3521E13425BD101F0C3
:10263000B5F9054601281FD9681C39D0206841F238
:1026400014010958A94248D86FB1E168FFF7B9FDF4
:1026500005000FD0012D0FD0681C29D0206801F093
:10266000EEFB28BB0AE002E01089B0423BD8042010
:10267000BDE8F0810720FBE70220F9E741F20A01FB
:1026800020680A5A002101F08CFA29462068FFF7D9
:102690008AFD2168002701F580514FF00108C862CA
:1026A0000FE000BF80F80480206801F0C8FB08B18B
:1026B0000120DDE7206800F58050C16A491C7F1CBD
:1026C000C162206800F580508178B942EAD821685B
:1026D00001F58051C96AC91BC162E56029462068BD
:1026E000FFF761FD2061E68041F20A012068095A86
:1026F0004909B6FBF1F201FB126100EB4110606188
:102700000020B5E72DE9F35FFF2483462746042622
:102710004FF6FF784FF0000900F5805567E0286814
:1027200001F046FA060066D16869017881B1C27A83
:10273000E52902F03F0209D02E2907D022F020031C
:10274000082B07D0B446019B9C4506D0FF2440E0EF
:10275000042650E04FF0010CF5E70F2A01D0ACBB86
:102760003EE04A0605D5477B21F04001EA880C4649
:10277000AA84A1422BD1417BB94228D10178DFF84C
:1027800080A001F03F01491E01EB810202EBC10173
:102790000022D5F820C001261AF8023003441B8815
:1027A00036B1FF2913D22CF811301E46491C01E026
:1027B00043450CD1521C0D2AEED30078400603D5B8
:1027C000FF2904D22CF81190641E01E00CE0FF24D4
:1027D000E4B200215846FFF707FF060007D00AE0E1
:1027E00001F0CCFAB84208D0A5F8248005E02969A8
:1027F000002994D10EB1C5F810903046BDE8FC9F79
:10280000643F00082DE9F14F84B00C22049C684617
:1028100004F58054A769266A394601F0B9F99DF894
:102820000B00C00718D00020F872012520622B464B
:1028300032466946384601F071F80498FFF734FED5
:1028400010B96D1C642DF2D3642D0BD004280AD16D
:102850009DF80B00F87226629DF80B0080070FD5DB
:10286000002004E0072005B0BDE8F08F401C36F8DA
:1028700010100029FAD10D211930B0FBF1F600E05B
:102880000126049D0021284600F0CFF8A8B94FF09A
:10289000000805F580573969386801F089F960B991
:1028A00078690078E5280BD050B14FF0000801217D
:1028B0002846FFF799FE0028EDD0042812D012E038
:1028C00008F101083046B045F1D1461E5FEA060A1C
:1028D00059D0E1880498A1EB0A0100F0A6F80500A0
:1028E00003D06BE00720054668E0A06901F046FAD6
:1028F00003902169206801F05BF905005ED16169F0
:10290000D4F82090039848730F20C87200200873F1
:1029100088760AF0FF0BC876ABF1010000EB80026D
:1029200002EBC00500234FF6FF7E254E4A1C01E056
:10293000604503D039F81500F4466D1CF75CC855A6
:1029400016F80380070A08F8027000B960465B1C9D
:102950000D2BEDD3704502D039F8150008B94BF0B6
:10296000400B81F800B02168012001F58051087109
:1029700000210498FFF738FE05001FD1AAF10100DD
:102980005FEA000AB5D12169206801F011F905005C
:1029900014D120220021606901F003F9D4E9050176
:1029A0000B2201F0F5F8A0696169C07A00F0180007
:1029B00008732168012001F580510871284652E70B
:1029C000643F00082DE9F04100F580540646A18CD3
:1029D000E788A1F57F40FF3800D13946304600F046
:1029E00024F805001ED12169206801F0E1F80500F6
:1029F00015D120220021606901F0D3F86169E5203A
:102A000008702068012100F580500171E088B8420B
:102A100008D200213046FFF7E7FD0500E3D0042D82
:102A200000D102252846BDE8F08170B500F580543C
:102A30000D46E180A368012B42D0206800F580504C
:102A4000416999423CD923B90178032906D1436AE7
:102A500023B1418980784E09464312E00189A94299
:102A60002ED9406A13E000F099FF0346401C25D0A0
:102A7000022B25D3206800F58050406998421FD969
:102A8000AD1B2068B5421946EDD2FFF78CFBE36021
:102A9000B0B121680A4601F580514B895B09B5FB4D
:102AA000F3F31844206148894009B5FBF0F100FBBD
:102AB000115002EB40106061002070BD012070BD1C
:102AC000022070BD084910B50B5C002253B90122E9
:102AD0000A540A1801EB8000127A40680168104617
:102AE00088470246104610BD1803002030B4054C3C
:102AF000231804EB80001B7A406804691846A4463A
:102B000030BC60471803002030B4054D2C1805EB8D
:102B10008000247A406885682046AC4630BC604717
:102B200018030020044A111802EB8000097A40685B
:102B300042680846104700001803002030B4054DD5
:102B40002C1805EB8000247A4068C5682046AC4606
:102B500030BC60471803002010B5044600F097FB16
:102B600000280DD1204601F093F9002808D104F582
:102B70008054A06AFFF77AFC002801D1002121606F
:102B800010BD2DE9F74F14468B46002269462046BA
:102B900000F04CFDD4F800A05FEA00084FD10AF520
:102BA0008054D4E90407B91E884202D8CBF800004B
:102BB00045E094F800900025B9F1010F01D0266A94
:102BC00016E002263146504600F0E8FE411C03D0D4
:102BD000012803D028B105E0012000E00220804652
:102BE00026E06D1C6069761C8642EBD320E049B973
:102BF0003146761C504600F0DBFF5FEA000817D133
:102C000061895046B9F1020F07D00278D0F801303F
:102C100042EA0322120106D006E0028802B96D1CC6
:102C2000801C891E02E06D1C001D091F7F1EDED165
:102C30002561607940F001006071CBF8005040469A
:102C4000BDE8FE8F2DE9FC5F0D46834601F020F9BB
:102C50005FEA00096FD10BF58054E07900286AD152
:102C6000606A01274FF0020A00287AD0691C32D02E
:102C7000E068A84200D20546A560002D5AD058460B
:102C8000691EFFF779FA6061226801461046FFF776
:102C90008AFA00287ED023686D1E03F580535E8972
:102CA0009A78B5FBF6F1521E11400D18A068B0FBE2
:102CB000F6F106FB11000028E0D0A269AA42DDD09F
:102CC000A07940063FD5587801235946FFF736FFD3
:102CD00000287AD133E002C8009121698346022599
:102CE00001B30026AD1C01918846761C206800F0D7
:102CF00055FE014601284DD9481C66D008F1010057
:102D00008142F1D00098854206D8CBF800600BF1E3
:102D10000400019A04C08346206800F58050406991
:102D20008842DED8606A05600098854204D8002099
:102D3000CBF80000B7E098E04FF01109B3E0A079BC
:102D400020F04000A0712068012300F580502A4641
:102D500040785946FFF7D8FE002836D1A561A2E099
:102D6000FFE7E068A84203D2A179890700D40546AD
:102D70004FF00008A068C4F808802DB321680A4607
:102D800001F580518E7849894E4378B1691EB1FBB7
:102D9000F6F100E066E0401EB0FBF6F3994205D381
:102DA000711E8843A0602D1A61690CE0216949B940
:102DB00000211046FFF705FA0146012852D0481CB1
:102DC00063D021616161E9B935E05EE0A0798007F7
:102DD000206805D5FFF7F5F9010004D1354613E069
:102DE00000F0DCFD0146481C4FD001293AD920688B
:102DF00000F580504069884234D96161A068AD1BFC
:102E00003044A060B542E1D8A06841F20A022844EB
:102E1000A0602068125AB5FBF2F302FB135252B1C4
:102E2000FFF7C1F9F0B1216801F580514989B5FB7F
:102E3000F1F101EB00082068A16800F5805042899B
:102E4000B1FBF2F302FB131121B3A269424521D079
:102E5000A17949060FD5407801235946FFF76EFE48
:102E600098B904E084F807A00220BDE8FC9FA0798F
:102E700020F04000A0712068012300F580504246F8
:102E800040785946FFF740FE10B1E7710120ECE7AA
:102E9000C4F81880D4E90201884204D9E060A0791E
:102EA00040F02000A0714846DFE700002DE9F7411F
:102EB00081B0904602980090684600F0E4FD04005E
:102EC00003D50B2004B0BDE8F081104E002756F862
:102ED00024502DB12846FFF73DF905F580552F7098
:102EE0000198002803D000BF4FF480510F5446F8DA
:102EF000240002D0B8F1010F01D00020E2E7002247
:102F000002A901A800F092FBDCE7000038000020D5
:102F10002DE9F74FADF5825D98B100F580564FF081
:102F2000000802F01F0741F2440127F00102694442
:102F30000DF58050C6F8008000F078FB040006D044
:102F4000D8E0092013B00DF5805DBDE8F08F41F2A7
:102F500028010DF580506944816168490162EB46A2
:102F6000416C584600F098FC04000DF5805045690E
:102F70000BD11DB1780803D0012102E0062404E042
:102F800000215846FFF7A8F8044617F01C0F75D02B
:102F90004FF0010AECB1042C14D158490020183923
:102FA00002E0401C022805D200EB400251F822202A
:102FB000002AF6D1022803D05846FFF723FC00E090
:102FC000122004460DF5805047F00807456954B1BA
:102FD00090E0E87A10F0110F01D007248AE078071A
:102FE00001D5082486E0380756D500F04AFDA873BD
:102FF000010AE973010C2974000E687485F80B80CE
:1030000085F81C8085F81D8085F81E800DF58050A0
:1030100085F81F800068294600F0A0FD8146002148
:10302000284600F0A3FE0DF58050B9F1000F0068AE
:1030300000F5805080F804A02CD00DF58050494652
:10304000006800F58050D0F82CA00DF58050006885
:1030500000F059FE04004DD10DF58050A9F1010199
:10306000006800F58050C1600DF580505146006841
:1030700000F09EFD04000BD03CE0FFE7D4BBE87AF3
:10308000C10601D5042435E0B90701D5C007A4D194
:10309000380701D547F020070DF58050006800F58E
:1030A0008050C06AC6E90705780801D0012100E018
:1030B0000021584600F006FDB062E8B1B7710DF589
:1030C000805086F8078047460068294600F046FD94
:1030D0003061287FD5F81D1040EA0120C6E9027052
:1030E000B7610DF5805077620068306000F5805060
:1030F000C088B080204625E70224FBE718010020A5
:103100002DE9F04F884687B0002199461546834641
:10311000196000F0BDFE002812D10BF58054E07953
:1031200000280DD1A079C00709D0D4E90201081AFE
:1031300001274FF0020A854200D90546A2E0072088
:1031400007B0BDE8F08F2068A16800F580535E8964
:10315000B1FBF6F206FB1212002A73D1B1FBF6F2B4
:103160009B785B1E1A4012F0FF0610D129B1626AEB
:103170002AB15846FFF700F804E0206902E06169CF
:1031800000F00CFC02281FD3411C55D0606161691E
:103190002068FFF708F8B8B130440090206800F5C7
:1031A00080504189B5FBF1F1039151B372188178D8
:1031B0008A4201D9891B039140784146039B009ABA
:1031C000FFF7A2FCC0BB03E084F807A00220B7E72A
:1031D000A07940060ED5A1690098081A0399884283
:1031E00008D2216801F580514A89594600FB0280C6
:1031F00000F0CEFC206800F58050468903984643D5
:1032000036E0A26900998A421AD0A179490609D507
:10321000407801235946FFF791FC68B9A07920F066
:103220004000A0712068012300F580505946407885
:10323000009AFFF769FC18B1E771012080E701E00F
:103240000098A0612068A16800F580504089B1FB1A
:10325000F0F200FB1212861AAE4200D92E46B1FBE4
:10326000F0F200FB121159443246404600F090FC47
:10327000A068B0443044A060D9F800008119AD1BAB
:10328000C9F80010002D7FF45EAF002058E770B53C
:10329000054600F0FDFD002811D105F58054A17907
:1032A0008A060CD548060FD52068012300F580500A
:1032B00029464078A269FFF741FC08B1012070BDA2
:1032C000A07920F04000A071E169206800F070FC56
:1032D0000028F4D1256AE87A40F02000E872207BCB
:1032E0002877A089000A6877E068000CA877E06872
:1032F000000EE8772846216900F038FD00F0C1FB98
:10330000A875010AE975010C2976000E687600207F
:10331000A874E874A079012120F02000A071206831
:1033200000F5805001712068BDE8704000F033BDA9
:10333000F1B5ADF5025D01220DF502510DF580509C
:1033400000F074F900281FD142F250010DF58050B1
:10335000694481612B4901620DF500506E46D0F839
:103360008010304600F098FA00280DD10221304636
:10337000FEF7B2FE002807D10DF5805045693DB13A
:10338000E87AC00706D0072021B00DF5005DF0BD3A
:103390000620F9E70DF580502946006800F0DEFBB5
:1033A00004001BD0E87AC00618D541F228020DEBC4
:1033B00002053146284600F0EBFB0DF5005128468A
:1033C0000C630221FFF731FB0028DDD100212846E4
:1033D000FFF798F90028D6D00428D5D13046FFF75A
:1033E000F1FA0028D0D13CB10DF58050214600689B
:1033F00000F089FC0028C7D10DF58050006800F06E
:10340000CAFCC1E7180100202DE9FC5F88460021B5
:10341000994615468346196000F03AFD002808D108
:103420000BF58054E079002803D1A079800702D4FD
:103430000720BDE8FC9FA068012741194FF0020A50
:1034400081427AD3B5E02068A168024600F5805039
:103450004389B1FBF3F603FB1616002E6ED1B1FBC8
:10346000F3F38078401E034013F0FF0618D129B112
:10347000606A38B15846FEF77FFE07E0206938B928
:10348000002100E061691046FEF79BFE002854D041
:10349000012833D0411C62D06061216901B92061EB
:1034A000A07940060DD52068012300F580505946CB
:1034B0004078A269FFF742FBF0BBA07920F0400002
:1034C000A07161692068FEF76EFEB8B130440190CA
:1034D000206800F580504189B5FBF1F1009171B38E
:1034E000721881788A4201D9891B0091DDE9003286
:1034F00040784146FFF722FBF0B903E084F807A0CB
:10350000022096E7A1690198081A009988420CD216
:10351000216801F580514A8900FB0281584600F07C
:1035200037FBA07920F04000A071206800F58050A2
:1035300046890098464332E011E03DE014E0FFE7A1
:10354000A169019A91420DD0D4E90212914209D2A7
:10355000407801235946019AFFF7D6FA10B1E77176
:10356000012066E70198A0612068A16800F58050FD
:103570004089B1FBF0F200FB1212861AAE4200D96C
:103580002E46B1FBF0F200FB121101EB0B003246AC
:10359000414600F0FDFAA07940F04000A071A0681B
:1035A000B0443044A060D9F80000AD1B3044C9F8E5
:1035B0000000002D7FF447AFD4E90201884200D912
:1035C000E060A07940F02000A071002031E7000009
:1035D000802804D30B4A51B1FF2801D9002070473D
:1035E00002EB4000A0F58050B0F8000F704732F8B1
:1035F0001130834203D0491C89B28029F7D380312E
:10360000C8B270479E3F00080021064B00E0491CED
:1036100033F81120002A04D08242F8D1024830F851
:10362000110070479E4000087E4200082DE9FF5FB0
:103630004FF0000B0546C0F800B01746084600F0F2
:1036400022FA060003D50B2004B0BDE8F09F8F4896
:1036500050F826409CB12C6004F58055287820B1A4
:103660006878FFF75FFAC1070BD085F800B0F0B2B9
:103670006870FFF727FAC10708D00320E4E70C20A1
:10368000E2E70FB1400704D40020DDE71FB1400797
:1036900001D50A20D8E741F20A01621868780221B0
:1036A000FFF724FA78BB6889B0F5007F34D3B0F512
:1036B000805F31D8002631462046FEF7D5FC012830
:1036C00026D100204FEA0D0204EB001191F8C2311F
:1036D00001F5DF712BB10B7AD1F8091043EA012112
:1036E00000E0002142F82010401C0428ECD3002701
:1036F0004FEA020858F8276036B131462046FEF7F7
:10370000B3FC10B90AE007E002207F1C042FF1D3BC
:10371000032801D0F0BB01E0012095E7B4F80B00CD
:10372000B5F80AC060455FD1E18A29B994F8240050
:10373000D4F8251040EA0121A961207C8A46E8706E
:10374000012801D002284FD100FB01F9607BA8704D
:1037500000B3411E084247D1B4F811104FEA5C1281
:10376000B1FBF2F302FB131329819BB9B4F8137078
:103770002FB994F82030D4F8217043EA0727E38961
:1037800043B1B1FBF2F803EB0902424497422BD359
:10379000BF1A00E028E0B7FBF0F028B3012740F69D
:1037A000F678404500D302274FF6F678404500D31F
:1037B0000327801C3244AA6233446861C5E9076369
:1037C000032F13D081B103EB09016962022F18D0D6
:1037D00000F0010100EB400001EB5000401E60448E
:1037E000B0FBFCF151450ED90D202DE70029FBD18E
:1037F00094F82C10D4F82D20800041EA022169624F
:10380000ECE74000EAE74FF0FF302861E8608020F5
:103810006871032F2ED1208E01282BD12046711CD8
:1038200000F0C6F930BB85F805B0B4F8FE01A0F58C
:103830002A4155391ED12078D4F8011040EA0120E0
:103840001349884216D194F8E401D4F8E51140EA0E
:103850000120104988420DD194F8E801D4F8E9110B
:1038600040EA0120286194F8EC01D4F8ED1140EA17
:103870000120E86005492F70091F0888401C088056
:10388000E8802046FEF766FCFEE6000038000020D7
:10389000525261417272416173B5054601980178D7
:1038A0002F2901D05C2901D1401C019005F58054DD
:1038B0000026A66001980078202805D2002128461D
:1038C000FFF7B3F866617CBD01A92846FEF7CCFC82
:1038D0000028F8D12846FEF7E7FDA169C97A28B18A
:1038E0000428F0D14907EED405207CBD4907FCD45B
:1038F0006169C87AC006F7D5206800F02FF9A0608A
:10390000E2E7000013B54FF4FA730122694602485A
:10391000FDF7FAFB00981CBDB80000207CB51646E8
:103920001C4605460B2200F033F9052C11D91A4A22
:103930000CE00021B61C2346044663F35F044008F4
:10394000E30300D55440491C1029F4D330880028E3
:10395000EFD107214FEA0D0204F00F003030392873
:1039600000D9C01D5054491E2409F5D17E20505461
:10397000002000E0401C884202D22B5C202BF9D1B1
:10398000082902D2535C491C00E020232B54401C20
:103990000828F5D37CBD0000211001002DE9F04777
:1039A0000D46074602290DD307F580546069A842E9
:1039B00008D920784FF0FF36012807D0022832D0EE
:1039C000032844D001263046BDE8F087618905EB25
:1039D0005508B8FBF1F0216A0144384600F0E8F8D8
:1039E0000028F0D16189B8FBF1F201FB128008F1E7
:1039F000010817F80090B8FBF1F0216A014438463D
:103A000000F0D6F80028DED16189B8FBF1F201FBA5
:103A10001280395C49EA0120E90701D00609D2E7A2
:103A2000C0F30B06CFE76089216A4008B5FBF0F0D0
:103A30000144384600F0BCF80028C4D16189680010
:103A4000B0FBF1F201FB120038440688BBE7608945
:103A5000216A8008B5FBF0F00144384600F0A8F870
:103A60000028B0D16189A800B0FBF1F201FB12007F
:103A700038440178D0F8010041EA002020F0704677
:103A8000A1E70020704710B504464FF0FF302268D0
:103A9000002A13D0114600E0491C0B78202B0ED3CE
:103AA0003A2BF9D112F8013B303B0A2B06D28A425D
:103AB00004D1002B02D1491C1846216010BD002002
:103AC00010BD0000F0B500F5805323481C680022AB
:103AD00002EB420550F82560A64209D100EB8505AE
:103AE0009F686E68BE4203D12D89DE88B54202D040
:103AF000521C022AECD3022A18D1002202E0521CE6
:103B0000022A05D202EB420550F82550002DF6D1CD
:103B1000022A13D002EB420540F8254000EB850451
:103B20009E686660DB88238100236381002902EBA5
:103B3000420100EB8101498902D019B10020F0BD9A
:103B4000491C01E04FF4807102EB420300EB83005B
:103B50004181501CF0BD000000010020024602F52A
:103B60008052488B1278032A02D1898A40EA0140A8
:103B70007047FCF71FFDFEF769F8FDF725FBFDF721
:103B800059FBFDF77BFBFDF711FBFDF749FCFEE759
:103B900004E000BF11F8013B00F8013B521EF9D2CE
:103BA0007047C9B201E000F8011B521EFBD27047FA
:103BB0002DE9F04100F580540746E06A0E460025E5
:103BC000B0420ED0384600F03AF9050009D16078CD
:103BD000012332463946FEF797FF08B16E1E0125D4
:103BE000E6622846BDE8F0812DE9F04717460D460C
:103BF0000646022904D306F580546069A84202D81B
:103C00000220BDE8F087217807F0FF094FF0010A94
:103C1000012924D002295DD00329F1D16089216ACC
:103C20008008B5FBF0F001443046FFF7C1FF0028E3
:103C3000E7D16289A900B1FBF2F302FB13118A19E3
:103C40004FF07043D2F8011003EA0121394311709B
:103C50000B0A53700B0C9370090ED17050E0618900
:103C600005EB5508B8FBF1F0216A01443046FFF737
:103C70009FFF0028C5D16189B8FBF1F201FB1280DA
:103C8000304408F10108E90703D0017869F31F11F6
:103C900000E03946017084F804A06189B8FBF1F0B6
:103CA000216A01443046FFF783FF0028A9D16289C9
:103CB000B8FBF2F302FB13813144EA0702D0C7F3E9
:103CC000071205E00A78C7F3032302F0F0021A4353
:103CD0000A7015E06089216A4008B5FBF0F00144E4
:103CE0003046FFF765FF00288BD162896900B1FB80
:103CF000F2F302FB131131443A0A81F800904A7042
:103D000084F804A07DE72DE9F0410F4680460229A2
:103D100018D308F580556869B84213D900261FE00A
:103D200039464046FFF73AFE04001CD0012C09D06A
:103D3000601C09D0002239464046FFF755FF0600B7
:103D400011D103E002260EE001260CE02869411C97
:103D500005D0401C2861687940F001006871274651
:103D60006869B842DCD83046BDE8F08181760A0A3D
:103D7000C2760A0C0275090E417570470146002093
:103D80000B22430803EBC01011F8013B521E1844EC
:103D9000C0B2F6D1704770B5044600F050F8060086
:103DA0004BD104F58055287803283FD16879012844
:103DB0003CD16A8900212046FFF7F3FE552084F8A4
:103DC000FE01AA2084F8FF0152202070607061205B
:103DD000A0704121E170722284F8E42184F8E52189
:103DE00084F8E61184F8E701286984F8E801010AFB
:103DF00084F8E911010C84F8EA11000E84F8EB0153
:103E0000E86884F8EC01010A84F8ED11010C84F8EB
:103E1000EE11000E84F8EF01EA690123521CEA62F8
:103E200068782146FEF78AFE0020687100226878D3
:103E30001146FEF75BFE00B10126304670BD2DE94C
:103E4000F04100F58054804620790027E8B1E56A0A
:103E5000607801232A464146FEF770FE08B101272B
:103E600013E000202071206AA169281A88420CD230
:103E7000E67808E0A0690123054460782A464146B7
:103E8000FEF75CFE761E022EF4D23846BDE8F081C5
:103E900010B580B100F58050016861B101F5805125
:103EA0000A7842B1CA888088824204D14878FEF7F5
:103EB00039FEC00700D0092010BD0102020304052D
:103EC000060708090A0B0C0D0E0F10100000000069
:103ED00000000000010203040607080900000000BA
:103EE00001020304809A90B68EB78F80D2D3D4D8C3
:103EF000D7DE8E8F909292E299E3EAEB59999A9DE0
:103F00009C9D9E9FB5D6E0E9A5A5A6A7A8A9AAABAA
:103F1000AC21AEAFB0B1B2B3B4B5B6B7B8B9BABBF5
:103F2000BCBDBEBFC0C1C2C3C4C5C7C7C8C9CACB58
:103F3000CCCDCECFD0D1D2D3D4D5D6D7D8D9DADB49
:103F4000DCDDDEDFE0E1E2E3E5E5E6E7E7E9EAEB39
:103F5000EDEDEEEFF0F1F2F3F4F5F6F7F8F9FAFB28
:103F6000FCFDFEFF01030507090E10121416181CB4
:103F70001E0000040002000180004000200010002C
:103F80000800040002000000008000400020001033
:103F90000008004000200010000800040002C700D4
:103FA000FC00E900E200E400E000E500E700EA00D0
:103FB000EB00E800EF00EE00EC00C400C500C90013
:103FC000E600C600F400F600F200FB00F900FF0076
:103FD000D600DC00F800A300D800D7009201E10071
:103FE000ED00F300FA00F100D100AA00BA00BF0012
:103FF000AE00AC00BD00BC00A100AB00BB00912531
:104000009225932502252425C100C200C000A900E5
:104010006325512557255D25A200A50010251425EF
:1040200034252C251C2500253C25E300C3005A25FA
:10403000542569256625602550256C25A400F000CF
:10404000D000CA00CB00C8003101CD00CE00CF00A7
:1040500018250C2588258425A600CC008025D300B2
:10406000DF00D400D200F500D500B500FE00DE0070
:10407000DA00DB00D900FD00DD00AF00B400AD00C8
:10408000B1001720BE00B600A700F700B800B000CE
:10409000A800B700B900B300B200A025A0006100DD
:1040A00062006300640065006600670068006900E4
:1040B0006A006B006C006D006E006F007000710094
:1040C0007200730074007500760077007800790044
:1040D0007A00A100A200A300A500AC00AF00E000A0
:1040E000E100E200E300E400E500E600E700E800AC
:1040F000E900EA00EB00EC00ED00EE00EF00F0005C
:10410000F100F200F300F400F500F600F800F90009
:10411000FA00FB00FC00FD00FE00FF0001010301AE
:104120000501070109010B010D010F011101130127
:104130001501170119011B011D011F012101230197
:104140002501270129012B012D012F013101330107
:10415000350137013A013C013E0140014201440171
:10416000460148014B014D014F01510153015501D9
:10417000570159015B015D015F0161016301650147
:10418000670169016B016D016F01710173017501B7
:1041900077017A017C017E019201B103B203B3037E
:1041A000B403B503B603B703B803B903BA03BB033B
:1041B000BC03BD03BE03BF03C003C103C303C403E9
:1041C000C503C603C703C803C903CA0330043104C7
:1041D0003204330434043504360437043804390413
:1041E0003A043B043C043D043E043F0440044104C3
:1041F0004204430444044504460447044804490473
:104200004A044B044C044D044E044F045104520420
:1042100053045404550456045704580459045A04CA
:104220005B045C045E045F047021712172217321C0
:104230007421752176217721782179217A217B21BA
:104240007C217D217E217F2141FF42FF43FF44FFEE
:1042500045FF46FF47FF48FF49FF4AFF4BFF4CFF22
:104260004DFF4EFF4FFF50FF51FF52FF53FF54FFD2
:1042700055FF56FF57FF58FF59FF5AFF00004100F6
:104280004200430044004500460047004800490002
:104290004A004B004C004D004E004F0050005100B2
:1042A0005200530054005500560057005800590062
:1042B0005A002100E0FFE1FFE5FFE2FFE3FFC0005D
:1042C000C100C200C300C400C500C600C700C800CA
:1042D000C900CA00CB00CC00CD00CE00CF00D0007A
:1042E000D100D200D300D400D500D600D800D90028
:1042F000DA00DB00DC00DD00DE00780100010201F5
:104300000401060108010A010C010E01100112014D
:104310001401160118011A011C011E0120012201BD
:104320002401260128012A012C012E01300132012D
:104330003401360139013B013D013F014101430197
:10434000450147014A014C014E01500152015401FF
:10435000560158015A015C015E016001620164016D
:10436000660168016A016C016E01700172017401DD
:10437000760179017B017D01910191039203930301
:104380009403950396039703980399039A039B0359
:104390009C039D039E039F03A003A103A303A40307
:1043A000A503A603A703A803A903AA0310041104E5
:1043B0001204130414041504160417041804190431
:1043C0001A041B041C041D041E041F0420042104E1
:1043D0002204230424042504260427042804290491
:1043E0002A042B042C042D042E042F04010402049F
:1043F00003040404050406040704080409040A0469
:104400000B040C040E040F0460216121622163215E
:104410006421652166216721682169216A216B2158
:104420006C216D216E216F2121FF22FF23FF24FFCC
:1044300025FF26FF27FF28FF29FF2AFF2BFF2CFF40
:104440002DFF2EFF2FFF30FF31FF32FF33FF34FFF0
:1044500035FF36FF37FF38FF39FF3AFF0000000015
:104460008044000800000020600000007C1E00085E
:10447000E044000860000020A02700008C1E000817
:104480000000000000000000271E0008331E000886
:104490002F1E0008371E00082B1E00080000000019
:1044A00000000000010000001000000000000000FB
:1044B00000127A000000000000000000010000006F
:1044C00000000000000000000000000000000000EC
:1044D00000000000000000000000000000000000DC
:04000005080000ED02
:00000001FF
